:020000040000FA
:0200000039289D
:040002000034003492
:08000800B0000308B1000A0872
:10001000B20083128C180D2814288C1021080319A3
:1000200014282008F72095000C18172832280C10E7
:10003000A11C32282F08290503191F282128970100
:1000400023282C3097002F082C05031928282B284B
:10005000BF308F002C280000AF0C031C31288030EB
:10006000AF0000003108830032088A00B00E300E65
:02007000090085
:0E00720083168B170B170C148C141F3086008E
:100080008030870088016530920003178901831250
:1000900087138813031385018601870188019D0159
:1000A000970191019B0195018C10920192141215F8
:1000B00030309000D6209430A900E330AC0080307E
:1000C000AF000C1021088800A7010730A6000A30F5
:1000D000A400A5010301061C250AA500E620A40B27
:1000E0006A2825080A3A031D7E28A60B67280730D0
:1000F000A600A70A0318A7030310672827080319F7
:100100008928F8302707A2130318A2175F30A80028
:10011000A20AA803A11B92282108031992282808E3
:100120000319A117A21FA428210803199928D62072
:10013000C0280330A100A201A1170630A000F720BB
:100140009500A1181014C02822080319C028A20184
:10015000A11BC128A10A2108043A03199728A11854
:1001600010142108033A0319B7280130B8280630C3
:100170000000A000F7209500A118C0282C3097009F
:1001800062282119D5282108833A0319CD28A00A0D
:100190002008073A0319A001D1280630A00303194B
:1001A000A0002008F7209500D5286228A101A2010F
:1001B000A301A001A801030195019D0197019101EF
:1001C0009B01950187011010880108004730B3009A
:0C01D000B30BE828B30BEA2808006228F3
:0201EE000739CF
:1001F000B40001308A000030340703188A0A8200F4
:0E020000033407340B34133423344F34A33447
:02400E00C420CC
:02401000FF3E71
:00000001FF
