:020000040000FA
:020000003028A6
:040002000034003492
:08000800B0000308B1000A0872
:10001000B20083128C180D2814288C1021080319A3
:1000200014282008F72095000C18172829280C10F0
:10003000A11C29282F08290503191F282128970109
:1000400023282C309700AF0D031C28280130AF0067
:1000500000003108830032088A00B00E300E09001B
:1000600083168B170B170C148C141F3086008030EE
:100070008700880165309200031789018312871376
:100080008813031385018601870188019D0197016B
:1000900091019B0195018C10920192141215303040
:1000A0009000C6202930A9008F30AC000130AF008D
:1000B0000C10A7010730A6000A30A400A501030117
:1000C000061C250AA500D620A40B5F2825080A3A9D
:1000D000031D7328A60B5C280730A600A70A031887
:1000E000A70303105C28270803197E28F830270788
:1000F000A2130318A2175F30A800A20AA803A11B2D
:10010000872821080319872828080319A117A21F87
:100110009928210803198E28C620AD280330A10094
:10012000A201A1170630A000F7209500A118101415
:10013000AD2822080319AD28A201A11BAE28A10AEF
:100140002108043A03198C28A1181014A118AD280D
:100150002C3097000130F720950059282119C52827
:100160002108833A0319BA28A00A2008073A03197C
:10017000A001C1282108880008160630A003031931
:10018000A0002008F7209500C5285928A101A20148
:10019000A301A001A801030195019D01970191010F
:1001A0009B01950187011010880108004730B300BA
:0C01B000B30BD828B30BDA28080059283C
:0201EE000739CF
:1001F000B40001308A000030340703188A0A8200F4
:0E020000033407340B34133423344F34A33447
:02400E00C420CC
:02401000FF3E71
:00000001FF
