:020000040000FA
:020000001828BE
:040002000034003492
:08000800A9000308AA000A0880
:10001000AB0083128C180D2811282008F7209500BA
:100020008C102A0883002B088A00A90E290E0900CB
:1000300083160C148C141F308600803087008801D2
:100040000430810065309200031789018312031385
:100050009D01970191019B0195012C3097008C1017
:100060009201921412158312031388018620A701AE
:100070000830A6000A30A400A5010301061C250AC9
:10008000A5008F20A40B3D2825080A3A031D5128FE
:10009000A60B3A280830A600A70A0318A7030310E6
:1000A0003A28270803195C28F8302707A2130318F9
:1000B000A2172F30A800A20AA803A11B65282108B7
:1000C0000319652828080319A117A21F7128210800
:1000D00003196C2886207C280330A100A201A117F7
:1000E0007C28220803197C28A201A11B7D28A10AD3
:1000F0002108043A03196A283728A00A2008073A79
:100100000319A0012008F72088003728A101A201C7
:10011000A301A001A8010301F720950008004730C2
:0E012000AC00AC0B9128AC0B932808003728DC
:0201EE000739CF
:1001F000AD0001308A0000302D0703188A0A820002
:0E02000006340E341634263486349E34C6344A
:02400E00C420CC
:02401000FF3E71
:00000001FF
