:020000040000FA
:020000002529B0
:040002000034003492
:08000800B3000308B4000A086C
:10001000B50083128C180D2814288C1021080319A0
:1000200014282008F72095000C1817283E280C10DB
:10003000A11C3E2830080721A90030081621AC0079
:100040002F082905031925282728970129282C304E
:1000500097002F082C0503192E283128BF308F0058
:1000600032280000AF0C031C3E288030AF00B00ADD
:10007000320A3006031D3E283108B00034088300E0
:0A00800035088A00B30E330E0900A4
:0201EE000739CF
:1001F000B70001308A000030370703188A0A8200EE
:10020000033407340B34133423344F34A334073905
:10021000B70001308A001030370703188A0A8200BD
:10022000153455345034AA34AA34AA340739B700E7
:1002300001308A001F30370703188A0A82000A3407
:0A024000FE34AF34113411341134D0
:06024A0083168B170B1751
:100250000C148C141F3086008030870088016530B4
:1002600092000317890183128713881303138501F2
:100270008601870188019D01970191019B019501EC
:100280008C1092019214121530309000D4219430C9
:10029000A900E330AC008030AF000C1021088800CA
:1002A000A7010730A6000A30A400A5010301061C1F
:1002B000250AA500E421A40B562925080A3A031DA6
:1002C0006A29A60B53290730A600A70A0318A7031B
:1002D00003105329270803197529F8302707A2139B
:1002E0000318A2175F30A800A20AA803A11B7E2949
:1002F000210803197E2928080319A117A21F942990
:10030000210803198529D421BE290330A100A201A7
:10031000A117B101B0010230B2000630A000F720F1
:100320009500A1181014BE2922080319BE29A201A4
:10033000A11BBF29A10A2108043A03198329A11886
:100340001014A11CAF29211CAA29B101B00102304F
:10035000B200AF290330B100B0000530B20021086F
:10036000033A0319B5290130B62906300000A00070
:10037000F7209500A118BE292C3097004E2921198D
:10038000D3292108833A0319CB29A00A2008073A68
:100390000319A001CF290630A0030319A0002008EB
:1003A000F7209500D3294E29A101A201A301A001A4
:1003B000A801030195019D01970191019B01950100
:1003C00087011010880108004730B600B60BE629F7
:0803D000B60BE82908004E29D4
:02400E00C420CC
:02401000FF3E71
:00000001FF
