:020000040000FA
:020000003028A6
:040002000034003492
:08000800B0000308B1000A0872
:10001000B20083128C180D2814288C1021080319A3
:1000200014282008F72095000C18172829280C10F0
:10003000A11C29282F08290503191F282128970109
:1000400023282C309700AF0D031C28280130AF0067
:1000500000003108830032088A00B00E300E09001B
:1000600083168B170B170C148C141F3086008030EE
:100070008700880165309200031789018312871376
:100080008813031385018601870188019D0197016B
:1000900091019B0195018C10920192141215303040
:1000A0009000CD202930A9008F30AC000130AF0086
:1000B0000C1021088800A7010730A6000A30A40010
:1000C000A5010301061C250AA500DD20A40B61285B
:1000D00025080A3A031D7528A60B5E280730A600DE
:1000E000A70A0318A70303105E282708031980280E
:1000F000F8302707A2130318A2175F30A800A20A3E
:10010000A803A11B89282108031989282808031995
:10011000A117A21F9B28210803199028CD20B728DA
:100120000330A100A201A1170630A000F72095001E
:10013000A1181014B72822080319B728A201A11B7F
:10014000B828A10A2108043A03198E28A11810140E
:100150002108033A0319AE280130AF280630000009
:10016000A000F7209500A118B7282C309700592837
:100170002119CC282108833A0319C428A00A200891
:10018000073A0319A001C8280630A0030319A000EC
:100190002008F7209500CC285928A101A201A3012D
:1001A000A001A801030195019D01970191019B0107
:1001B000950187011010880108004730B300B30B88
:0A01C000DF28B30BE12808005928DE
:0201EE000739CF
:1001F000B40001308A000030340703188A0A8200F4
:0E020000033407340B34133423344F34A33447
:02400E00C420CC
:02401000FF3E71
:00000001FF
