:020000040000FA
:020000003028A6
:040002000034003492
:08000800B0000308B1000A0872
:10001000B20083128C180D2814288C1021080319A3
:1000200014282008F72095000C18172829280C10F0
:10003000A11C29282F08290503191F282128970109
:1000400023282C309700AF0D031C28280130AF0067
:1000500000003108830032088A00B00E300E09001B
:1000600083168B170B170C148C141F3086008030EE
:100070008700880165309200031789018312871376
:100080008813031385018601870188019D0197016B
:1000900091019B0195018C10920192141215303040
:1000A0009000BA209230A9008F30AC000130AF0030
:1000B0000C1021088800A7010730A6000A30A40010
:1000C000A5010301061C250AA500CA20A40B61286E
:1000D00025080A3A031D7528A60B5E280730A600DE
:1000E000A70A0318A70303105E282708031980280E
:1000F000F8302707A2130318A2175F30A800A20A3E
:10010000A803A11B89282108031989282808031995
:10011000A117A21F9C28210803199028BA20B028F3
:100120000330A100A201A1172C3097000630F72060
:100130009500A1181014B02822080319B028A201B4
:10014000A11BB128A10A2108043A03198E28A1187D
:100150001014A118B0282C3097000130F72095001A
:100160005928A00A2008073A0319A0012008F720FF
:1001700095005928A101A201A301A001A801030132
:1001800095019D01970191019B0195018701101037
:10019000880108004730B300B30BCC28B30BCE283E
:0401A00008005928D2
:0201EE000739CF
:1001F000B40001308A000030340703188A0A8200F4
:0E02000006340E341634263486349E34C6344A
:02400E00C420CC
:02401000FF3E71
:00000001FF
